{
  "_format": "hh-sol-artifact-1",
  "contractName": "NFTOpenCase",
  "sourceName": "contracts/NFTOpenCase.sol",
  "abi": [
    {
      "inputs": [],
      "stateMutability": "nonpayable",
      "type": "constructor"
    },
    {
      "anonymous": false,
      "inputs": [
        {
          "indexed": true,
          "internalType": "address",
          "name": "owner",
          "type": "address"
        },
        {
          "indexed": true,
          "internalType": "address",
          "name": "approved",
          "type": "address"
        },
        {
          "indexed": true,
          "internalType": "uint256",
          "name": "tokenId",
          "type": "uint256"
        }
      ],
      "name": "Approval",
      "type": "event"
    },
    {
      "anonymous": false,
      "inputs": [
        {
          "indexed": true,
          "internalType": "address",
          "name": "owner",
          "type": "address"
        },
        {
          "indexed": true,
          "internalType": "address",
          "name": "operator",
          "type": "address"
        },
        {
          "indexed": false,
          "internalType": "bool",
          "name": "approved",
          "type": "bool"
        }
      ],
      "name": "ApprovalForAll",
      "type": "event"
    },
    {
      "anonymous": false,
      "inputs": [
        {
          "indexed": false,
          "internalType": "uint256",
          "name": "_fromTokenId",
          "type": "uint256"
        },
        {
          "indexed": false,
          "internalType": "uint256",
          "name": "_toTokenId",
          "type": "uint256"
        }
      ],
      "name": "BatchMetadataUpdate",
      "type": "event"
    },
    {
      "anonymous": false,
      "inputs": [
        {
          "indexed": false,
          "internalType": "uint256",
          "name": "_tokenId",
          "type": "uint256"
        }
      ],
      "name": "MetadataUpdate",
      "type": "event"
    },
    {
      "anonymous": false,
      "inputs": [
        {
          "indexed": true,
          "internalType": "address",
          "name": "from",
          "type": "address"
        },
        {
          "indexed": true,
          "internalType": "address",
          "name": "to",
          "type": "address"
        },
        {
          "indexed": true,
          "internalType": "uint256",
          "name": "tokenId",
          "type": "uint256"
        }
      ],
      "name": "Transfer",
      "type": "event"
    },
    {
      "anonymous": false,
      "inputs": [
        {
          "indexed": true,
          "internalType": "uint256",
          "name": "tokenId",
          "type": "uint256"
        },
        {
          "indexed": false,
          "internalType": "address",
          "name": "owner",
          "type": "address"
        },
        {
          "indexed": false,
          "internalType": "address",
          "name": "seller",
          "type": "address"
        },
        {
          "indexed": false,
          "internalType": "uint256",
          "name": "price",
          "type": "uint256"
        },
        {
          "indexed": false,
          "internalType": "bool",
          "name": "sold",
          "type": "bool"
        }
      ],
      "name": "itemCreated",
      "type": "event"
    },
    {
      "inputs": [
        {
          "internalType": "address",
          "name": "to",
          "type": "address"
        },
        {
          "internalType": "uint256",
          "name": "tokenId",
          "type": "uint256"
        }
      ],
      "name": "approve",
      "outputs": [],
      "stateMutability": "nonpayable",
      "type": "function"
    },
    {
      "inputs": [
        {
          "internalType": "address",
          "name": "owner",
          "type": "address"
        }
      ],
      "name": "balanceOf",
      "outputs": [
        {
          "internalType": "uint256",
          "name": "",
          "type": "uint256"
        }
      ],
      "stateMutability": "view",
      "type": "function"
    },
    {
      "inputs": [
        {
          "internalType": "string",
          "name": "tokenURI",
          "type": "string"
        },
        {
          "internalType": "uint256",
          "name": "price",
          "type": "uint256"
        }
      ],
      "name": "createToken",
      "outputs": [
        {
          "internalType": "uint256",
          "name": "",
          "type": "uint256"
        }
      ],
      "stateMutability": "payable",
      "type": "function"
    },
    {
      "inputs": [
        {
          "internalType": "uint256",
          "name": "tokenId",
          "type": "uint256"
        }
      ],
      "name": "executeSale",
      "outputs": [],
      "stateMutability": "payable",
      "type": "function"
    },
    {
      "inputs": [],
      "name": "getAllNFT",
      "outputs": [
        {
          "components": [
            {
              "internalType": "uint256",
              "name": "tokenId",
              "type": "uint256"
            },
            {
              "internalType": "address payable",
              "name": "owner",
              "type": "address"
            },
            {
              "internalType": "address payable",
              "name": "seller",
              "type": "address"
            },
            {
              "internalType": "uint256",
              "name": "price",
              "type": "uint256"
            },
            {
              "internalType": "bool",
              "name": "sold",
              "type": "bool"
            }
          ],
          "internalType": "struct NFTOpenCase.Item[]",
          "name": "",
          "type": "tuple[]"
        }
      ],
      "stateMutability": "view",
      "type": "function"
    },
    {
      "inputs": [
        {
          "internalType": "uint256",
          "name": "tokenId",
          "type": "uint256"
        }
      ],
      "name": "getApproved",
      "outputs": [
        {
          "internalType": "address",
          "name": "",
          "type": "address"
        }
      ],
      "stateMutability": "view",
      "type": "function"
    },
    {
      "inputs": [],
      "name": "getListPrice",
      "outputs": [
        {
          "internalType": "uint256",
          "name": "",
          "type": "uint256"
        }
      ],
      "stateMutability": "view",
      "type": "function"
    },
    {
      "inputs": [],
      "name": "getMyNFT",
      "outputs": [
        {
          "components": [
            {
              "internalType": "uint256",
              "name": "tokenId",
              "type": "uint256"
            },
            {
              "internalType": "address payable",
              "name": "owner",
              "type": "address"
            },
            {
              "internalType": "address payable",
              "name": "seller",
              "type": "address"
            },
            {
              "internalType": "uint256",
              "name": "price",
              "type": "uint256"
            },
            {
              "internalType": "bool",
              "name": "sold",
              "type": "bool"
            }
          ],
          "internalType": "struct NFTOpenCase.Item[]",
          "name": "",
          "type": "tuple[]"
        }
      ],
      "stateMutability": "view",
      "type": "function"
    },
    {
      "inputs": [
        {
          "internalType": "address",
          "name": "owner",
          "type": "address"
        },
        {
          "internalType": "address",
          "name": "operator",
          "type": "address"
        }
      ],
      "name": "isApprovedForAll",
      "outputs": [
        {
          "internalType": "bool",
          "name": "",
          "type": "bool"
        }
      ],
      "stateMutability": "view",
      "type": "function"
    },
    {
      "inputs": [],
      "name": "name",
      "outputs": [
        {
          "internalType": "string",
          "name": "",
          "type": "string"
        }
      ],
      "stateMutability": "view",
      "type": "function"
    },
    {
      "inputs": [
        {
          "internalType": "uint256",
          "name": "tokenId",
          "type": "uint256"
        }
      ],
      "name": "ownerOf",
      "outputs": [
        {
          "internalType": "address",
          "name": "",
          "type": "address"
        }
      ],
      "stateMutability": "view",
      "type": "function"
    },
    {
      "inputs": [
        {
          "internalType": "uint256",
          "name": "tokenId",
          "type": "uint256"
        },
        {
          "internalType": "uint256",
          "name": "price",
          "type": "uint256"
        }
      ],
      "name": "resellToken",
      "outputs": [],
      "stateMutability": "payable",
      "type": "function"
    },
    {
      "inputs": [
        {
          "internalType": "address",
          "name": "from",
          "type": "address"
        },
        {
          "internalType": "address",
          "name": "to",
          "type": "address"
        },
        {
          "internalType": "uint256",
          "name": "tokenId",
          "type": "uint256"
        }
      ],
      "name": "safeTransferFrom",
      "outputs": [],
      "stateMutability": "nonpayable",
      "type": "function"
    },
    {
      "inputs": [
        {
          "internalType": "address",
          "name": "from",
          "type": "address"
        },
        {
          "internalType": "address",
          "name": "to",
          "type": "address"
        },
        {
          "internalType": "uint256",
          "name": "tokenId",
          "type": "uint256"
        },
        {
          "internalType": "bytes",
          "name": "data",
          "type": "bytes"
        }
      ],
      "name": "safeTransferFrom",
      "outputs": [],
      "stateMutability": "nonpayable",
      "type": "function"
    },
    {
      "inputs": [
        {
          "internalType": "address",
          "name": "operator",
          "type": "address"
        },
        {
          "internalType": "bool",
          "name": "approved",
          "type": "bool"
        }
      ],
      "name": "setApprovalForAll",
      "outputs": [],
      "stateMutability": "nonpayable",
      "type": "function"
    },
    {
      "inputs": [
        {
          "internalType": "bytes4",
          "name": "interfaceId",
          "type": "bytes4"
        }
      ],
      "name": "supportsInterface",
      "outputs": [
        {
          "internalType": "bool",
          "name": "",
          "type": "bool"
        }
      ],
      "stateMutability": "view",
      "type": "function"
    },
    {
      "inputs": [],
      "name": "symbol",
      "outputs": [
        {
          "internalType": "string",
          "name": "",
          "type": "string"
        }
      ],
      "stateMutability": "view",
      "type": "function"
    },
    {
      "inputs": [
        {
          "internalType": "uint256",
          "name": "tokenId",
          "type": "uint256"
        }
      ],
      "name": "tokenURI",
      "outputs": [
        {
          "internalType": "string",
          "name": "",
          "type": "string"
        }
      ],
      "stateMutability": "view",
      "type": "function"
    },
    {
      "inputs": [
        {
          "internalType": "address",
          "name": "from",
          "type": "address"
        },
        {
          "internalType": "address",
          "name": "to",
          "type": "address"
        },
        {
          "internalType": "uint256",
          "name": "tokenId",
          "type": "uint256"
        }
      ],
      "name": "transferFrom",
      "outputs": [],
      "stateMutability": "nonpayable",
      "type": "function"
    },
    {
      "inputs": [
        {
          "internalType": "uint256",
          "name": "_listPrice",
          "type": "uint256"
        }
      ],
      "name": "updateListPrice",
      "outputs": [],
      "stateMutability": "payable",
      "type": "function"
    }
  ],
  "bytecode": "0x6080604052662386f26fc10000600a553480156200001c57600080fd5b50604080518082018252600b81526a4e46544f70656e4361736560a81b6020808301918252835180850190945260058452644e46544f4360d81b9084015281519192916200006d916000916200009e565b508051620000839060019060208401906200009e565b5050600780546001600160a01b031916331790555062000181565b828054620000ac9062000144565b90600052602060002090601f016020900481019282620000d057600085556200011b565b82601f10620000eb57805160ff19168380011785556200011b565b828001600101855582156200011b579182015b828111156200011b578251825591602001919060010190620000fe565b50620001299291506200012d565b5090565b5b808211156200012957600081556001016200012e565b600181811c908216806200015957607f821691505b602082108114156200017b57634e487b7160e01b600052602260045260246000fd5b50919050565b6121a880620001916000396000f3fe60806040526004361061011f5760003560e01c806395d89b41116100a0578063c87b56dd11610064578063c87b56dd14610302578063cad7d03314610322578063e219fc7514610344578063e985e9c514610357578063f3b1633d146103a057600080fd5b806395d89b41146102875780639b1225c41461029c578063a22cb465146102af578063b88d4fde146102cf578063c322579c146102ef57600080fd5b806342842e0e116100e757806342842e0e146101f55780636352211e1461021557806368f1945f1461023557806370a082311461025457806372b3b6201461027457600080fd5b806301ffc9a71461012457806306fdde0314610159578063081812fc1461017b578063095ea7b3146101b357806323b872dd146101d5575b600080fd5b34801561013057600080fd5b5061014461013f366004611d82565b6103b5565b60405190151581526020015b60405180910390f35b34801561016557600080fd5b5061016e6103e0565b6040516101509190611f5d565b34801561018757600080fd5b5061019b610196366004611e10565b610472565b6040516001600160a01b039091168152602001610150565b3480156101bf57600080fd5b506101d36101ce366004611d59565b610499565b005b3480156101e157600080fd5b506101d36101f0366004611c6b565b6105b4565b34801561020157600080fd5b506101d3610210366004611c6b565b6105e5565b34801561022157600080fd5b5061019b610230366004611e10565b610600565b34801561024157600080fd5b50600a545b604051908152602001610150565b34801561026057600080fd5b5061024661026f366004611c1f565b610660565b610246610282366004611dba565b6106e6565b34801561029357600080fd5b5061016e6107d9565b6101d36102aa366004611e10565b6107e8565b3480156102bb57600080fd5b506101d36102ca366004611d1f565b610923565b3480156102db57600080fd5b506101d36102ea366004611ca6565b610932565b6101d36102fd366004611e10565b610964565b34801561030e57600080fd5b5061016e61031d366004611e10565b6109d4565b34801561032e57600080fd5b50610337610add565b6040516101509190611ee1565b6101d3610352366004611e28565b610d44565b34801561036357600080fd5b50610144610372366004611c39565b6001600160a01b03918216600090815260056020908152604080832093909416825291909152205460ff1690565b3480156103ac57600080fd5b50610337610e27565b60006001600160e01b03198216632483248360e11b14806103da57506103da82610f90565b92915050565b6060600080546103ef906120da565b80601f016020809104026020016040519081016040528092919081815260200182805461041b906120da565b80156104685780601f1061043d57610100808354040283529160200191610468565b820191906000526020600020905b81548152906001019060200180831161044b57829003601f168201915b5050505050905090565b600061047d82610fe0565b506000908152600460205260409020546001600160a01b031690565b60006104a482610600565b9050806001600160a01b0316836001600160a01b031614156105175760405162461bcd60e51b815260206004820152602160248201527f4552433732313a20617070726f76616c20746f2063757272656e74206f776e656044820152603960f91b60648201526084015b60405180910390fd5b336001600160a01b038216148061053357506105338133610372565b6105a55760405162461bcd60e51b815260206004820152603d60248201527f4552433732313a20617070726f76652063616c6c6572206973206e6f7420746f60448201527f6b656e206f776e6572206f7220617070726f76656420666f7220616c6c000000606482015260840161050e565b6105af8383611042565b505050565b6105be33826110b0565b6105da5760405162461bcd60e51b815260040161050e90611f70565b6105af83838361112e565b6105af83838360405180602001604052806000815250610932565b6000818152600260205260408120546001600160a01b0316806103da5760405162461bcd60e51b8152602060048201526018602482015277115490cdcc8c4e881a5b9d985b1a59081d1bdad95b88125160421b604482015260640161050e565b60006001600160a01b0382166106ca5760405162461bcd60e51b815260206004820152602960248201527f4552433732313a2061646472657373207a65726f206973206e6f7420612076616044820152683634b21037bbb732b960b91b606482015260840161050e565b506001600160a01b031660009081526003602052604090205490565b600081600a54341461073a5760405162461bcd60e51b815260206004820152601960248201527f4e6f7420456e6f75676820657468657220746f206c6973742100000000000000604482015260640161050e565b600081116107985760405162461bcd60e51b815260206004820152602560248201527f5468652070726963652063616e206e6f74206265206e65676174697665206e756044820152646d6265722160d81b606482015260840161050e565b6107a6600880546001019055565b60006107b160085490565b90506107bd3382611292565b6107c781866112ac565b6107d1818561137e565b949350505050565b6060600180546103ef906120da565b6000818152600b602052604090206003015434811461083f5760405162461bcd60e51b8152602060048201526013602482015272496e73756666696369656e742066756e64732160681b604482015260640161050e565b6000828152600b602052604090206002810154600180830180546004909401805460ff19169092179091556001600160a01b03193381169316929092179091556001600160a01b0316610896600980546001019055565b6108a130338561112e565b6108ab3084610499565b600754600a546040516001600160a01b039092169181156108fc0291906000818181858888f193505050501580156108e7573d6000803e3d6000fd5b506040516001600160a01b038216903480156108fc02916000818181858888f1935050505015801561091d573d6000803e3d6000fd5b50505050565b61092e3383836114d9565b5050565b61093c33836110b0565b6109585760405162461bcd60e51b815260040161050e90611f70565b61091d848484846115a8565b6007546001600160a01b031633146109cf5760405162461bcd60e51b815260206004820152602860248201527f4f6e6c79206f776e65722063616e206368616e676520746865206c697374696e604482015267672070726963652160c01b606482015260840161050e565b600a55565b60606109df82610fe0565b600082815260066020526040812080546109f8906120da565b80601f0160208091040260200160405190810160405280929190818152602001828054610a24906120da565b8015610a715780601f10610a4657610100808354040283529160200191610a71565b820191906000526020600020905b815481529060010190602001808311610a5457829003601f168201915b505050505090506000610a8f60408051602081019091526000815290565b9050805160001415610aa2575092915050565b815115610ad4578082604051602001610abc929190611e75565b60405160208183030381529060405292505050919050565b6107d1846115db565b60606000610aea60085490565b905060008060005b83811015610b825733600b6000610b0a846001612096565b81526020810191909152604001600020600101546001600160a01b03161480610b5d575033600b6000610b3e846001612096565b81526020810191909152604001600020600201546001600160a01b0316145b15610b705782610b6c81612115565b9350505b80610b7a81612115565b915050610af2565b5060008267ffffffffffffffff811115610bac57634e487b7160e01b600052604160045260246000fd5b604051908082528060200260200182016040528015610c0557816020015b6040805160a081018252600080825260208083018290529282018190526060820181905260808201528252600019909201910181610bca5790505b50905060005b84811015610d3b5733600b6000610c23846001612096565b81526020810191909152604001600020600101546001600160a01b03161480610c76575033600b6000610c57846001612096565b81526020810191909152604001600020600201546001600160a01b0316145b15610d29576000600b81610c8b846001612096565b81526020808201929092526040908101600020815160a0810183528154815260018201546001600160a01b039081169482019490945260028201549093169183019190915260038101546060830152600481015460ff16151560808301528451909250849086908110610d0e57634e487b7160e01b600052603260045260246000fd5b60200260200101819052508380610d2490612115565b945050505b80610d3381612115565b915050610c0b565b50949350505050565b6000828152600b60205260409020600101546001600160a01b03163314610dad5760405162461bcd60e51b815260206004820152601760248201527f4f6e6c79206f776e65722063616e2073656c6c20697421000000000000000000604482015260640161050e565b600a543414610dce5760405162461bcd60e51b815260040161050e90612054565b6000828152600b602052604090206001810180546001600160a01b031990811630179091556002820180549091163317905560038101829055600401805460ff19169055610e1c600961164f565b61092e33308461112e565b60606000610e3460085490565b905060008167ffffffffffffffff811115610e5f57634e487b7160e01b600052604160045260246000fd5b604051908082528060200260200182016040528015610eb857816020015b6040805160a081018252600080825260208083018290529282018190526060820181905260808201528252600019909201910181610e7d5790505b5090506000805b83811015610f87576000600b81610ed7846001612096565b81526020808201929092526040908101600020815160a0810183528154815260018201546001600160a01b039081169482019490945260028201549093169183019190915260038101546060830152600481015460ff16151560808301528551909250859085908110610f5a57634e487b7160e01b600052603260045260246000fd5b60200260200101819052508280610f7090612115565b935050508080610f7f90612115565b915050610ebf565b50909392505050565b60006001600160e01b031982166380ac58cd60e01b1480610fc157506001600160e01b03198216635b5e139f60e01b145b806103da57506301ffc9a760e01b6001600160e01b03198316146103da565b6000818152600260205260409020546001600160a01b031661103f5760405162461bcd60e51b8152602060048201526018602482015277115490cdcc8c4e881a5b9d985b1a59081d1bdad95b88125160421b604482015260640161050e565b50565b600081815260046020526040902080546001600160a01b0319166001600160a01b038416908117909155819061107782610600565b6001600160a01b03167f8c5be1e5ebec7d5bd14f71427d1e84f3dd0314c0f7b2291e5b200ac8c7c3b92560405160405180910390a45050565b6000806110bc83610600565b9050806001600160a01b0316846001600160a01b0316148061110357506001600160a01b0380821660009081526005602090815260408083209388168352929052205460ff165b806107d15750836001600160a01b031661111c84610472565b6001600160a01b031614949350505050565b826001600160a01b031661114182610600565b6001600160a01b0316146111675760405162461bcd60e51b815260040161050e9061200f565b6001600160a01b0382166111c95760405162461bcd60e51b8152602060048201526024808201527f4552433732313a207472616e7366657220746f20746865207a65726f206164646044820152637265737360e01b606482015260840161050e565b826001600160a01b03166111dc82610600565b6001600160a01b0316146112025760405162461bcd60e51b815260040161050e9061200f565b600081815260046020908152604080832080546001600160a01b03199081169091556001600160a01b0387811680865260038552838620805460001901905590871680865283862080546001019055868652600290945282852080549092168417909155905184937fddf252ad1be2c89b69c2b068fc378daa952ba7f163c4a11628f55a4df523b3ef91a4505050565b61092e8282604051806020016040528060008152506116a6565b6000828152600260205260409020546001600160a01b03166113275760405162461bcd60e51b815260206004820152602e60248201527f45524337323155524953746f726167653a2055524920736574206f66206e6f6e60448201526d32bc34b9ba32b73a103a37b5b2b760911b606482015260840161050e565b6000828152600660209081526040909120825161134692840190611af4565b506040518281527ff8e1a15aba9398e019f0b49df1a4fde98ee17ae345cb5f6b5e2c27f5033e8ce79060200160405180910390a15050565b600081116113ce5760405162461bcd60e51b815260206004820152601960248201527f5072696365206d757374206265206174206c6561737420312100000000000000604482015260640161050e565b600a5434146113ef5760405162461bcd60e51b815260040161050e90612054565b6040805160a081018252838152306020808301828152338486018181526060860188815260016080880181815260008c8152600b9097529890952096518755925193860180546001600160a01b039586166001600160a01b03199182161790915590516002870180549190951691161790925551600384015592516004909201805492151560ff199093169290921790915561148c91908461112e565b604080513081523360208201529081018290526000606082015282907f55fc9324ee92a9f76d2dd6ad6084352427ddc55e148537ef15fafd2497c362a79060800160405180910390a25050565b816001600160a01b0316836001600160a01b0316141561153b5760405162461bcd60e51b815260206004820152601960248201527f4552433732313a20617070726f766520746f2063616c6c657200000000000000604482015260640161050e565b6001600160a01b03838116600081815260056020908152604080832094871680845294825291829020805460ff191686151590811790915591519182527f17307eab39ab6107e8899845ad3d59bd9653f200f220920489ca2b5937696c31910160405180910390a3505050565b6115b384848461112e565b6115bf848484846116d9565b61091d5760405162461bcd60e51b815260040161050e90611fbd565b60606115e682610fe0565b60006115fd60408051602081019091526000815290565b9050600081511161161d5760405180602001604052806000815250611648565b80611627846117e6565b604051602001611638929190611e75565b6040516020818303038152906040525b9392505050565b80548061169e5760405162461bcd60e51b815260206004820152601b60248201527f436f756e7465723a2064656372656d656e74206f766572666c6f770000000000604482015260640161050e565b600019019055565b6116b08383611891565b6116bd60008484846116d9565b6105af5760405162461bcd60e51b815260040161050e90611fbd565b60006001600160a01b0384163b156117db57604051630a85bd0160e11b81526001600160a01b0385169063150b7a029061171d903390899088908890600401611ea4565b602060405180830381600087803b15801561173757600080fd5b505af1925050508015611767575060408051601f3d908101601f1916820190925261176491810190611d9e565b60015b6117c1573d808015611795576040519150601f19603f3d011682016040523d82523d6000602084013e61179a565b606091505b5080516117b95760405162461bcd60e51b815260040161050e90611fbd565b805181602001fd5b6001600160e01b031916630a85bd0160e11b1490506107d1565b506001949350505050565b606060006117f383611a1c565b600101905060008167ffffffffffffffff81111561182157634e487b7160e01b600052604160045260246000fd5b6040519080825280601f01601f19166020018201604052801561184b576020820181803683370190505b5090508181016020015b600019016f181899199a1a9b1b9c1cb0b131b232b360811b600a86061a8153600a850494508461188457611889565b611855565b509392505050565b6001600160a01b0382166118e75760405162461bcd60e51b815260206004820181905260248201527f4552433732313a206d696e7420746f20746865207a65726f2061646472657373604482015260640161050e565b6000818152600260205260409020546001600160a01b03161561194c5760405162461bcd60e51b815260206004820152601c60248201527f4552433732313a20746f6b656e20616c7265616479206d696e74656400000000604482015260640161050e565b6000818152600260205260409020546001600160a01b0316156119b15760405162461bcd60e51b815260206004820152601c60248201527f4552433732313a20746f6b656e20616c7265616479206d696e74656400000000604482015260640161050e565b6001600160a01b038216600081815260036020908152604080832080546001019055848352600290915280822080546001600160a01b0319168417905551839291907fddf252ad1be2c89b69c2b068fc378daa952ba7f163c4a11628f55a4df523b3ef908290a45050565b60008072184f03e93ff9f4daa797ed6e38ed64bf6a1f0160401b8310611a5b5772184f03e93ff9f4daa797ed6e38ed64bf6a1f0160401b830492506040015b6d04ee2d6d415b85acef81000000008310611a87576d04ee2d6d415b85acef8100000000830492506020015b662386f26fc100008310611aa557662386f26fc10000830492506010015b6305f5e1008310611abd576305f5e100830492506008015b6127108310611ad157612710830492506004015b60648310611ae3576064830492506002015b600a83106103da5760010192915050565b828054611b00906120da565b90600052602060002090601f016020900481019282611b225760008555611b68565b82601f10611b3b57805160ff1916838001178555611b68565b82800160010185558215611b68579182015b82811115611b68578251825591602001919060010190611b4d565b50611b74929150611b78565b5090565b5b80821115611b745760008155600101611b79565b600067ffffffffffffffff80841115611ba857611ba8612146565b604051601f8501601f19908116603f01168101908282118183101715611bd057611bd0612146565b81604052809350858152868686011115611be957600080fd5b858560208301376000602087830101525050509392505050565b80356001600160a01b0381168114611c1a57600080fd5b919050565b600060208284031215611c30578081fd5b61164882611c03565b60008060408385031215611c4b578081fd5b611c5483611c03565b9150611c6260208401611c03565b90509250929050565b600080600060608486031215611c7f578081fd5b611c8884611c03565b9250611c9660208501611c03565b9150604084013590509250925092565b60008060008060808587031215611cbb578081fd5b611cc485611c03565b9350611cd260208601611c03565b925060408501359150606085013567ffffffffffffffff811115611cf4578182fd5b8501601f81018713611d04578182fd5b611d1387823560208401611b8d565b91505092959194509250565b60008060408385031215611d31578182fd5b611d3a83611c03565b915060208301358015158114611d4e578182fd5b809150509250929050565b60008060408385031215611d6b578182fd5b611d7483611c03565b946020939093013593505050565b600060208284031215611d93578081fd5b81356116488161215c565b600060208284031215611daf578081fd5b81516116488161215c565b60008060408385031215611dcc578182fd5b823567ffffffffffffffff811115611de2578283fd5b8301601f81018513611df2578283fd5b611e0185823560208401611b8d565b95602094909401359450505050565b600060208284031215611e21578081fd5b5035919050565b60008060408385031215611e3a578182fd5b50508035926020909101359150565b60008151808452611e618160208601602086016120ae565b601f01601f19169290920160200192915050565b60008351611e878184602088016120ae565b835190830190611e9b8183602088016120ae565b01949350505050565b6001600160a01b0385811682528416602082015260408101839052608060608201819052600090611ed790830184611e49565b9695505050505050565b602080825282518282018190526000919060409081850190868401855b82811015611f5057815180518552868101516001600160a01b03908116888701528682015116868601526060808201519086015260809081015115159085015260a09093019290850190600101611efe565b5091979650505050505050565b6020815260006116486020830184611e49565b6020808252602d908201527f4552433732313a2063616c6c6572206973206e6f7420746f6b656e206f776e6560408201526c1c881bdc88185c1c1c9bdd9959609a1b606082015260800190565b60208082526032908201527f4552433732313a207472616e7366657220746f206e6f6e20455243373231526560408201527131b2b4bb32b91034b6b83632b6b2b73a32b960711b606082015260800190565b60208082526025908201527f4552433732313a207472616e736665722066726f6d20696e636f72726563742060408201526437bbb732b960d91b606082015260800190565b60208082526022908201527f5072696365206d75737420626520657175616c20746f204c6973742050726963604082015261652160f01b606082015260800190565b600082198211156120a9576120a9612130565b500190565b60005b838110156120c95781810151838201526020016120b1565b8381111561091d5750506000910152565b600181811c908216806120ee57607f821691505b6020821081141561210f57634e487b7160e01b600052602260045260246000fd5b50919050565b600060001982141561212957612129612130565b5060010190565b634e487b7160e01b600052601160045260246000fd5b634e487b7160e01b600052604160045260246000fd5b6001600160e01b03198116811461103f57600080fdfea2646970667358221220927bb08f8602dc239a255922d176af83f0286ff917a15bc529deaebf121c665a64736f6c63430008040033",
  "linkReferences": {},
  "deployedLinkReferences": {}
}